0035228920999991917010320004+60717+028783FM-12+000399999V0201101N004619999999N0000001N9002731+99999100341ADDGF108991999999999999999999MW1721
0114010010999991917010100004+70933-008667FM-12+0009ENJA V0201901N00151004201CN0030001N9+99999+99999101721ADDAA106005091AG10001AY171061AY221061GF108991081071004501999999MD1110011+9999MW1731OA149900211REMSYN011333   91104
0088010010999991917010103004+70933-008667FM-12+0009ENJA V0201601N00051000301CN0002001N9-00051-00061101651ADDAG12000AY171031AY241031GA1091+999999999GF109991091999999999999999MD1110051+9999MW1101
0149010010999991917010106004+70933-008667FM-12+0009ENJA V0209991C00001000151CN0001001N9-00031-00041101621ADDAA191705091AG10000AY171061AY241061GA1091+999999999GF109991091999999999999999KA1120N-00101MD1710031+9999MW1471OA149900211REMSYN017333   21010 91104
0088010010999991917010109004+70933-008667FM-12+0009ENJA V0200901N00101000151CN0000001N9-00031-00041101601ADDAG12000AY141031AY241031GA1091+999999999GF109991091999999999999999MD1710021+9999MW1451
0150010010999991917010112004+70933-008667FM-12+0009ENJA V0209991C00001000151CN0001001N9+00041+00031101631ADDAA106000191AG10000AY151061AY241061GA1091+999999999GF109991091999999999999999MD1310031+9999MW1451OA149900101SA1-0059REMSYN023222// 01005 333   91102
0088010010999991917010115004+70933-008667FM-12+0009ENJA V0209991C00001000151CN0000001N9+00021+00011101641ADDAG12000AY141031AY241031GA1091+999999999GF109991091999999999999999MD1010011+9999MW1451
0149010010999991917010118004+70933-008667FM-12+0009ENJA V0209991V00151002401CN0030001N9+00061+00051101601ADDAA191700391AG10000AY151061AY241061GA1091+999999999GF109991091999999999999999KA1120M+00071MD1810041+9999MW1451OA149900151REMSYN017333   10007 91103
0050010010999991917010121004+70933-008667FM-12+0009ENJA V0209991V00051024001CN0150001N9+00041+00031101631ADDAG12000GF107991041051004501051999MD1310031+9999
0114010010999991917010200004+70933-008667FM-12+0009ENJA V0201901N00101004201CN0100001N9+00111+00101101591ADDAA106000091AG14000AY121061AY221061GF108991081061004501999999MD1810041+9999MW1101OA149900311REMSYN011333   91106
0072010010999991917010203004+70933-008667FM-12+0009ENJA V0203301N001519999999N0100001N9+00041+00031101501ADDAG12000AY121031AY221031GF108991999999002501999999MD1710091+9999MW1101
0111010010999991917010206004+70933-008667FM-12+0009ENJA V0209991C00001004201CN0150001N9+00001-00011101421ADDAA106000091AG14000GF108991081061004501999999KA1120N+00001MD1710081+9999OA149900411REMSYN017333   20000 91108
0029228920999991901010106004+60717+028783FM-12+000399999V0203601N009319999999N0000001N9-01441+99999100061ADDGF108991999999999999999999
0029228920999991901010113004+60717+028783FM-12+000399999V0203601N002619999999N0000001N9-01281+99999100141ADDGF100991999999999999999999
0029228920999991901010120004+60717+028783FM-12+000399999V0203601N001019999999N0000001N9-01441+99999100471ADDGF100991999999999999999999
0029228920999991901010206004+60717+028783FM-12+000399999V0203601N001019999999N0000001N9-01831+99999100981ADDGF100991999999999999999999
0029228920999991901010213004+60717+028783FM-12+000399999V0203601N001019999999N0000001N9-01671+99999101261ADDGF108991999999999999999999
0029228920999991901010220004+60717+028783FM-12+000399999V0201101N001019999999N0000001N9-01831+99999101321ADDGF104991999999999999999999
0029228920999991901010306004+60717+028783FM-12+000399999V0201101N002619999999N0000001N9-01441+99999101061ADDGF108991999999999999999999
0029228920999991901010313004+60717+028783FM-12+000399999V0201101N004619999999N0000001N9-01441+99999100701ADDGF108991999999999999999999
0035228920999991901010320004+60717+028783FM-12+000399999V0201101N004619999999N0000001N9003061+99999100341ADDGF108991999999999999999999MW1721
0035228920999991905010320004+60717+028783FM-12+000399999V0201101N004619999999N0000001N9001781+99999100341ADDGF108991999999999999999999MW1721
0035228920999991905010106004+60717+028783FM-12+000399999V0201801N012919999999N0000001N9000178+99999101721ADDGF108991999999999999999999MW1721
0035228920999991905010113004+60717+028783FM-12+000399999V0202001N020119999999N0000001N9000160+99999100521ADDGF108991999999999999999999MW1721
0035228920999991905010120004+60717+028783FM-12+000399999V0202301N008219999999N0000001N9000061+99999100041ADDGF108991999999999999999999MW1721
0029228920999991905010206004+60717+028783FM-12+000399999V0202701N006219999999N0000001N9+00001+99999099391ADDGF100991999999999999999999
0029228920999991905010213004+60717+028783FM-12+000399999V0202701N006219999999N0000001N9000061+99999098961ADDGF108991999999999999999999
0029228920999991905010220004+60717+028783FM-12+000399999V0209991C000019999999N0000001N9000031+99999098801ADDGF104991999999999999999999
0035228920999991905010306004+60717+028783FM-12+000399999V0209991C000019999999N0000001N9000131+99999098401ADDGF108991999999999999999999MW1701
0035228920999991905010313004+60717+028783FM-12+000399999V0203401N004119999999N0000001N9001001+99999098901ADDGF108991999999999999999999MW1701
